S01700004763634170706C69636174696F6E312E737265635B
S11300000C9434000C9451000C9451000C94510045
S11300100C9451000C9451000C9451000C94510018
S11300200C9451000C9451000C9451000C94510008
S11300300C9451000C9451000C9451000C945100F8
S11300400C9451000C9451000C9451000C945100E8
S11300500C9451000C9451000C9451000C945100D8
S11300600C9451000C94510011241FBECFEFD8E022
S1130070DEBFCDBF11E0A0E0B1E0EEE3F7E002C0E7
S113008005900D92A431B107D9F721E0A4E1B1E0C4
S113009001C01D92A631B207E1F70E94DC000C9466
S11300A09D030C9400004098389A8FE797E00197DD
S11300B0F1F700C000003898EFEEF0E03197F1F767
S11300C000C0000086B1EFE8F6E03197F1F700C018
S11300D00000817008954098389A95E09A95F1F758
S11300E00000811138988FEE90E00197F1F700C07D
S11300F00000389808954098389A85E08A95F1F779
S1130100000038989AE49A95F1F700C086B190EF10
S11301109A95F1F781700895CF93DF93D82FC8E0B3
S11301208D2F81700E946B00D695C150C9F7DF9165
S1130130CF910895CF93DF93D8E0C0E00E947B0075
S113014020E8829FC0011124C695C82BD150B1F775
S11301508C2FDF91CF910895CF93F8940E94530090
S11301608CEC0E948C0084E40E948C000E947B0032
S11301708823E1F30E9453008CEC0E948C008EEBE8
S11301800E948C000E949A00C82F0E949A007894C2
S1130190682F70E0762F66276C0F711D072E000CF8
S11301A0880B990B0E946C0220E030E040E85DE38C
S11301B00E94F902CF9108958FEF8AB984B98EEF26
S11301C088B917B878940E9489010E94AC006B0129
S11301D07C0160E081E80E94500180E091E00E948F
S11301E0F10160E089EC0E94500181E191E00E94FC
S11301F0F10120E030E040E252E4C701B6010E9480
S1130200F402181654F020E030E040E051E4C70155
S1130210B6010E9436028823ACF460E085EC0E94AB
S1130220500161E088E50E94500160E086EC0E9484
S1130230500161E088E50E94500161E080E00E9485
S1130240500124C0C701B6010E943B02DC01CB016E
S113025064E171E00E94010261E080E00E945001CB
S113026060E085EC0E945001C4E1D1E061E0898145
S11302700E94500161E088810E94500160E088EC96
S11302800E94500161E08FED0E9450012FEF81EE3A
S113029094E0215080409040E1F700C0000095CFE9
S11302A0611102C0289801C0289A9BB19F70282F21
S11302B0207F922B9BB945E04A95F1F70000299ADB
S11302C095E09A95F1F70000299840EF4A95F1F7E7
S11302D02BB1922F9F7040E1849F90011124292B10
S11302E02BB995E09A95F1F70000299A45E04A95D3
S11302F0F1F70000299890EF9A95F1F7611108C081
S1130300843030F48FE39FE10197F1F700C00000DF
S11303100895289829982FEF89EF90E02150804084
S11303209040E1F700C000008BB18F7080638BB9FF
S113033025E02A95F1F70000299A85E08A95F1F7DE
S11303400000299890EF9A95F1F78FE19EE40197C8
S1130350F1F700C0000095E09A95F1F70000299AA2
S113036025E02A95F1F70000299880EF8A95F1F7A6
S11303708FE193E00197F1F700C0000095E09A95B2
S1130380F1F70000299A25E02A95F1F70000299851
S113039080EF8A95F1F78BB18F7080628BB995E00D
S11303A09A95F1F70000299A25E02A95F1F70000C3
S11303B0299880EF8A95F1F760E088E20E94500165
S11303C060E088E00E94500160E081E00E945001FA
S11303D060E08CE00E94500160E080E80E945001DF
S11303E00895CF93DF93EC018881882339F0219617
S11303F061E00E94500189918111FACFDF91CF9180
S11304000895AC01FB01DB019B012B5F3F4F80E3AF
S11304108D93A217B307E1F79A01ADECBCEC0E94EF
S11304208E039695879596958795969587959C01C5
S1130430220F331F880F991F880F991F880F991F48
S1130440820F931F9A01281B390BC901805D819388
S11304509A010E948E03AC0156954795569547958F
S11304605695479541155105B9F608950E94A7027E
S113047008F481E008950E94D30288F09F5798F011
S1130480B92F9927B751B0F0E1F0660F771F881F95
S1130490991F1AF0BA95C9F714C0B13091F00E94AF
S11304A0ED02B1E008950C94ED02672F782F8827B0
S11304B0B85F39F0B93FCCF3869577956795B395D6
S11304C0D9F73EF490958095709561957F4F8F4F45
S11304D09F4F0895E89409C097FB3EF4909580954A
S11304E0709561957F4F8F4F9F4F9923A9F0F92FF6
S11304F096E9BB279395F695879577956795B79574
S1130500F111F8CFFAF4BB0F11F460FF1BC06F5F59
S11305107F4F8F4F9F4F16C0882311F096E911C06B
S1130520772321F09EE8872F762F05C0662371F08C
S113053096E8862F70E060E02AF09A95660F771FA0
S1130540881FDAF7880F9695879597F90895990F7C
S11305500008550FAA0BE0E8FEEF16161706E80789
S1130560F907C0F012161306E407F50798F0621BAA
S1130570730B840B950B39F40A2661F0232B242B7F
S1130580252B21F408950A2609F4A140A6958FEF9E
S1130590811D811D089557FD9058440F551F59F032
S11305A05F3F71F04795880F97FB991F61F09F3F5C
S11305B079F087950895121613061406551FF2CF85
S11305C04695F1DF08C0161617061806991FF1CFD5
S11305D086957105610508940895E894BB276627FC
S11305E07727CB0197F908950E94A70208F48FEFAB
S11305F008950E940C030C947D030E946F0338F04D
S11306000E94760320F0952311F00C9466030C9459
S11306106C0311240C94EE020E94CB0270F3959F9C
S1130620C1F3950F50E0551F629FF001729FBB27E5
S1130630F00DB11D639FAA27F00DB11DAA1F649F81
S11306406627B00DA11D661F829F2227B00DA11D34
S1130650621F739FB00DA11D621F839FA00D611DBA
S1130660221F749F3327A00D611D231F849F600DDB
S1130670211D822F762F6A2F11249F5750409AF004
S1130680F1F088234AF0EE0FFF1FBB1F661F771F90
S1130690881F91505040A9F79E3F510580F00C945B
S11306A066030C94EE025F3FE4F3983ED4F3869520
S11306B077956795B795F795E7959F5FC1F7FE2BFB
S11306C0880F911D9695879597F9089597F99F67D7
S11306D080E870E060E008959FEF80EC08950024C6
S11306E00A941616170618060906089500240A9493
S11306F012161306140605060895092E0394000C19
S113070011F4882352F0BB0F40F4BF2B11F460FFA7
S113071004C06F5F7F4F8F4F9F4F0895A29FB0011A
S1130720B39FC001A39F700D811D1124911DB29F21
S1110730700D811D1124911D0895F894FFCFC2
S113073E544553544520444520534F4E4441533A57
S107074E0043000060
S9030000FC
